{
  "contractName": "Voting",
  "abi": [
    {
      "constant": true,
      "inputs": [],
      "name": "opinionCount",
      "outputs": [
        {
          "name": "",
          "type": "uint256"
        }
      ],
      "payable": false,
      "stateMutability": "view",
      "type": "function"
    },
    {
      "constant": true,
      "inputs": [],
      "name": "nam",
      "outputs": [
        {
          "name": "",
          "type": "string"
        }
      ],
      "payable": false,
      "stateMutability": "view",
      "type": "function"
    },
    {
      "constant": true,
      "inputs": [
        {
          "name": "",
          "type": "uint256"
        }
      ],
      "name": "opinion",
      "outputs": [
        {
          "name": "_id",
          "type": "uint256"
        },
        {
          "name": "creator",
          "type": "address"
        },
        {
          "name": "name",
          "type": "string"
        },
        {
          "name": "description",
          "type": "string"
        },
        {
          "name": "upvote",
          "type": "uint256"
        },
        {
          "name": "downvote",
          "type": "uint256"
        },
        {
          "name": "voteEnding",
          "type": "uint256"
        }
      ],
      "payable": false,
      "stateMutability": "view",
      "type": "function"
    },
    {
      "anonymous": false,
      "inputs": [
        {
          "indexed": true,
          "name": "_id",
          "type": "uint256"
        }
      ],
      "name": "eventVote",
      "type": "event"
    },
    {
      "anonymous": false,
      "inputs": [
        {
          "indexed": false,
          "name": "name",
          "type": "string"
        },
        {
          "indexed": false,
          "name": "description",
          "type": "string"
        }
      ],
      "name": "addOp",
      "type": "event"
    },
    {
      "constant": false,
      "inputs": [
        {
          "name": "name",
          "type": "string"
        },
        {
          "name": "description",
          "type": "string"
        },
        {
          "name": "time",
          "type": "uint256"
        }
      ],
      "name": "addOpinion",
      "outputs": [],
      "payable": false,
      "stateMutability": "nonpayable",
      "type": "function"
    },
    {
      "constant": false,
      "inputs": [
        {
          "name": "_id",
          "type": "uint256"
        }
      ],
      "name": "upVote",
      "outputs": [],
      "payable": false,
      "stateMutability": "nonpayable",
      "type": "function"
    },
    {
      "constant": false,
      "inputs": [
        {
          "name": "_id",
          "type": "uint256"
        }
      ],
      "name": "downVote",
      "outputs": [],
      "payable": false,
      "stateMutability": "nonpayable",
      "type": "function"
    }
  ],
  "bytecode": "0x60806040526040805190810160405280600f81526020017f566f74696e6720436f6e747261637400000000000000000000000000000000008152506000908051906020019061004f929190610067565b50600060015534801561006157600080fd5b5061010c565b828054600181600116156101000203166002900490600052602060002090601f016020900481019282601f106100a857805160ff19168380011785556100d6565b828001600101855582156100d6579182015b828111156100d55782518255916020019190600101906100ba565b5b5090506100e391906100e7565b5090565b61010991905b808211156101055760008160009055506001016100ed565b5090565b90565b610b648061011b6000396000f3fe608060405260043610610072576000357c0100000000000000000000000000000000000000000000000000000000900480631ae9392d1461007757806368d9b1c9146100b25780639af9bec0146100dd578063ab105c231461016d578063dfb8a8a0146102d6578063ec859db514610445575b600080fd5b34801561008357600080fd5b506100b06004803603602081101561009a57600080fd5b8101908080359060200190929190505050610480565b005b3480156100be57600080fd5b506100c7610558565b6040518082815260200191505060405180910390f35b3480156100e957600080fd5b506100f261055e565b6040518080602001828103825283818151815260200191508051906020019080838360005b83811015610132578082015181840152602081019050610117565b50505050905090810190601f16801561015f5780820380516001836020036101000a031916815260200191505b509250505060405180910390f35b34801561017957600080fd5b506102d46004803603606081101561019057600080fd5b81019080803590602001906401000000008111156101ad57600080fd5b8201836020820111156101bf57600080fd5b803590602001918460018302840111640100000000831117156101e157600080fd5b91908080601f016020809104026020016040519081016040528093929190818152602001838380828437600081840152601f19601f8201169050808301925050505050505091929192908035906020019064010000000081111561024457600080fd5b82018360208201111561025657600080fd5b8035906020019184600183028401116401000000008311171561027857600080fd5b91908080601f016020809104026020016040519081016040528093929190818152602001838380828437600081840152601f19601f820116905080830192505050505050509192919290803590602001909291905050506105fc565b005b3480156102e257600080fd5b5061030f600480360360208110156102f957600080fd5b8101908080359060200190929190505050610829565b604051808881526020018773ffffffffffffffffffffffffffffffffffffffff1673ffffffffffffffffffffffffffffffffffffffff1681526020018060200180602001868152602001858152602001848152602001838103835288818151815260200191508051906020019080838360005b8381101561039d578082015181840152602081019050610382565b50505050905090810190601f1680156103ca5780820380516001836020036101000a031916815260200191505b50838103825287818151815260200191508051906020019080838360005b838110156104035780820151818401526020810190506103e8565b50505050905090810190601f1680156104305780820380516001836020036101000a031916815260200191505b50995050505050505050505060405180910390f35b34801561045157600080fd5b5061047e6004803603602081101561046857600080fd5b81019080803590602001909291905050506109bb565b005b3373ffffffffffffffffffffffffffffffffffffffff166002600083815260200190815260200160002060010160009054906101000a900473ffffffffffffffffffffffffffffffffffffffff1673ffffffffffffffffffffffffffffffffffffffff16141515156104f157600080fd5b600154811115151561050257600080fd5b6002600082815260200190815260200160002060050160008154809291906001019190505550807f5190cbcb11a5b819d29d510204755e1304f26705e78d63e90e9befa7c78c164b60405160405180910390a250565b60015481565b60008054600181600116156101000203166002900480601f0160208091040260200160405190810160405280929190818152602001828054600181600116156101000203166002900480156105f45780601f106105c9576101008083540402835291602001916105f4565b820191906000526020600020905b8154815290600101906020018083116105d757829003601f168201915b505050505081565b60e06040519081016040528060015481526020013373ffffffffffffffffffffffffffffffffffffffff1681526020018481526020018381526020016000815260200160008152602001828152506002600060015481526020019081526020016000206000820151816000015560208201518160010160006101000a81548173ffffffffffffffffffffffffffffffffffffffff021916908373ffffffffffffffffffffffffffffffffffffffff16021790555060408201518160020190805190602001906106cc929190610a93565b5060608201518160030190805190602001906106e9929190610a93565b506080820151816004015560a0820151816005015560c08201518160060155905050600180600082825401925050819055507f72e2811c3010928327d311419ca52603d7b7682eff6f53d2a2246d75e513117c8383604051808060200180602001838103835285818151815260200191508051906020019080838360005b83811015610782578082015181840152602081019050610767565b50505050905090810190601f1680156107af5780820380516001836020036101000a031916815260200191505b50838103825284818151815260200191508051906020019080838360005b838110156107e85780820151818401526020810190506107cd565b50505050905090810190601f1680156108155780820380516001836020036101000a031916815260200191505b5094505050505060405180910390a1505050565b60026020528060005260406000206000915090508060000154908060010160009054906101000a900473ffffffffffffffffffffffffffffffffffffffff1690806002018054600181600116156101000203166002900480601f0160208091040260200160405190810160405280929190818152602001828054600181600116156101000203166002900480156109015780601f106108d657610100808354040283529160200191610901565b820191906000526020600020905b8154815290600101906020018083116108e457829003601f168201915b505050505090806003018054600181600116156101000203166002900480601f01602080910402602001604051908101604052809291908181526020018280546001816001161561010002031660029004801561099f5780601f106109745761010080835404028352916020019161099f565b820191906000526020600020905b81548152906001019060200180831161098257829003601f168201915b5050505050908060040154908060050154908060060154905087565b3373ffffffffffffffffffffffffffffffffffffffff166002600083815260200190815260200160002060010160009054906101000a900473ffffffffffffffffffffffffffffffffffffffff1673ffffffffffffffffffffffffffffffffffffffff1614151515610a2c57600080fd5b6001548111151515610a3d57600080fd5b6002600082815260200190815260200160002060040160008154809291906001019190505550807f5190cbcb11a5b819d29d510204755e1304f26705e78d63e90e9befa7c78c164b60405160405180910390a250565b828054600181600116156101000203166002900490600052602060002090601f016020900481019282601f10610ad457805160ff1916838001178555610b02565b82800160010185558215610b02579182015b82811115610b01578251825591602001919060010190610ae6565b5b509050610b0f9190610b13565b5090565b610b3591905b80821115610b31576000816000905550600101610b19565b5090565b9056fea165627a7a723058208a51d8de2b2d39e1a56aac292b557b43017cde77e9fd20f5268f5f9b81b6bafe0029",
  "source": "pragma solidity >=0.4.22 <0.9.0;\r\n\r\n\r\n\r\ncontract Voting{\r\n \r\n    string public nam=\"Voting Contract\";\r\n    uint256 public opinionCount=0;\r\n    mapping(uint=>Opinion) public opinion;\r\n    mapping(address=>bool) voter;\r\n\r\n  \r\n    \r\n    struct Opinion{\r\n        uint _id;\r\n        address creator;\r\n        string name;\r\n        string description;\r\n        uint256 upvote;\r\n        uint256 downvote;\r\n         uint  voteEnding;\r\n    }\r\n    \r\n    event eventVote(\r\n        uint indexed _id\r\n        );\r\n\r\n        event addOp(\r\n            string name,\r\n            string description\r\n        );\r\n    \r\n    function addOpinion(string memory name, string memory description,uint time) public{\r\n        opinion[opinionCount]=Opinion(opinionCount,msg.sender,name,description,0,0,time);\r\n        opinionCount +=1;\r\n        emit addOp(name,description);\r\n    }\r\n    \r\n    function upVote(uint _id)public{\r\n        // require(!voter[msg.sender]);\r\n        require(opinion[_id].creator!=msg.sender);\r\n        require(_id<=opinionCount);\r\n        // voter[msg.sender]=true;\r\n      \r\n        opinion[_id].upvote++;\r\n        emit eventVote(_id);\r\n        \r\n    }\r\n    \r\n     function downVote(uint _id)public{\r\n         require(opinion[_id].creator!=msg.sender);\r\n        // require(!voter[msg.sender]); \r\n        require(_id<=opinionCount);\r\n        // voter[msg.sender]=true;\r\n        \r\n        opinion[_id].downvote ++;\r\n        emit eventVote(_id);\r\n    }\r\n}\r\n",
  "sourcePath": "E:\\Warm Up Area\\web3MetamaskBlockchain\\new\\votingdapp\\contracts\\Voting.sol",
  "compiler": {
    "name": "solc",
    "version": "0.5.1+commit.c8a2cb62.Emscripten.clang"
  },
  "schemaVersion": "3.4.3",
  "updatedAt": "2021-09-25T18:26:07.381Z",
  "networkType": "ethereum",
  "devdoc": {
    "methods": {}
  },
  "userdoc": {
    "methods": {}
  }
}